:020000040800F2
:1000000000300020F5390008550A0008570A00089A
:10001000590A00085B0A00085D0A00080000000099
:100020000000000000000000000000005F0A00085F
:10003000610A000800000000630A0008650A000861
:10004000453A0008453A0008453A0008453A000894
:10005000453A0008453A0008453A0008453A000884
:10006000453A0008453A0008453A0008453A000874
:10007000453A0008453A0008453A0008453A000864
:10008000453A0008453A0008453A0008453A000854
:100090006D0A00087D0A0008453A0008453A000844
:1000A000453A0008453A00088D0A0008453A00081C
:1000B000453A0008453A000800000000453A0008AB
:1000C000453A00080000000000000000453A000822
:1000D00000000000453A0008453A0008453A00088B
:1000E000453A0008453A0008000000000000000002
:1000F0000000000000000000000000000000000000
:1001000000000000000000000000000000000000EF
:100110000000000000000000453A0008453A0008D1
:1001200000000000000000000000000000000000CF
:1001300000000000000000000000000000000000BF
:10014000453A0008453A00080000000000000000A1
:10015000000000000000000000000000000000009F
:10016000000000000000000000000000000000008F
:10017000000000000000000000000000000000007F
:0801800000000000453A0008F0
:1001880010B5054C237833B9044B13B10448AFF3C9
:1001980000800123237010BD6800002000000000CB
:1001A800A842000808B5034B1BB103490348AFF345
:1001B800008008BD000000006C000020A842000874
:1001C80070B588B003AD0024039404940594069494
:1001D80007941C4B5A6942F480025A615A6902F426
:1001E80080020092009A5A6942F400325A615A69B0
:1001F80002F400320192019A5A6942F480225A614B
:100208005B6903F480230293029B224611214FF07D
:10021800904002F02AF811230393012604960594CE
:10022800069429464FF0904001F03AFF802303934B
:100238000494059629464FF0904001F031FF08B02C
:1002480070BD00BF0010024000B58BB001AB03AA1F
:10025800002100F0D2FF88B91D4B039A1A601B6871
:10026800B3F5817F1AD01A4B1A6840F205139A42E7
:1002780024D0174B1B68B3F5837F21D00BB000BD8A
:1002880003F128026A4412F8241C124AD15401339B
:10029800072BF5DD104B01221A70E4E70023F7E77E
:1002A80003F128026A4412F8241C0C4AD154013381
:1002B800072BF5DD0A4B01221A70DAE70023F7E76E
:1002C8000023084A1370084A126893631364D5E739
:1002D800A0000020980000208E0000209000002040
:1002E8008D000020B0000020D40100200268044BDB
:1002F8009A4200D07047034B01221A70FAE700BFF8
:10030800004801408C000020024B586A00225A62C3
:1003180000B27047002C014010B514460A2392B26F
:10032800024803F023FA204610BD00BFB4000020A5
:1003380072B6FEE710B588B00446124800F044FFD4
:1003480008B908B010BD029400230593049308224D
:1003580006928DF81C300C4A1168080E0B4A107072
:100368000814507008129070D17013715371937102
:10037800D37101AB02A9034800F0B1FE0028E0D018
:10038800FFF7D6FFB0020020AC000020A400002038
:1003980008B50B480B4B03604FF4E133436000236F
:1003A8008360C36003610C2242618361C36103629D
:1003B800436203F0A2FA00B908BDFFF7B9FF00BF16
:1003C800B40000200044004010B58AB01548164B10
:1003D80003600323436000238360C3604FF4C0229B
:1003E80002614FF480124261037643768376C376C6
:1003F8000377437700F01CFD78B92822002168466E
:1004080003F0E2FC012308930E230993694605488B
:1004180000F0B4FD18B90AB010BDFFF789FFFFF767
:1004280087FF00BFB00200200064004008B50948FB
:10043800094B036050234360002383602A22C26073
:1004480003618361436201F08BFF00B908BDFFF7C8
:100458006FFF00BF800200202800014000B585B072
:10046800002301930293039309480A4B036002F0A7
:100478009FF848B900230193102201A9044802F00B
:10048800EFF818B905B000BDFFF752FFFFF750FFAE
:100498006C0200200074004010B58CB003AC24221C
:1004A8000021204603F090FC00230093019302935F
:1004B8001148124A0260436083604FF6FF72C260BF
:1004C8000361436183610323039301230593099324
:1004D800214602F027FC50B90023009301930293B0
:1004E8006946054802F030FF18B90CB010BDFFF797
:1004F8001FFFFFF71DFF00BF20020020002C014056
:1005080000B58FB000230A930B930C930D930793B8
:10051800089309930093019302930393049305931B
:10052800069323484FF080420260032242608360B2
:1005380040F6B732C26003618023836102F062FB38
:1005480050BB4FF480530A930AA9194802F068FD7A
:1005580020BB174802F0B6FB10BB00230793099392
:1005680007A9134802F0F0FEE0B9602300930023C6
:10057800019302930493042269460D4802F0A5FCF6
:1005880090B90C2269460A4802F09FFC70B90848E5
:1005980000F0BCFB0FB000BDFFF7CAFEFFF7C8FEB6
:1005A800FFF7C6FEFFF7C4FEFFF7C2FEFFF7C0FE67
:1005B800D401002000B58FB000230A930B930C934D
:1005C8000D93079308930993009301930293039360
:1005D8000493059306931E481E4A02603B2242601C
:1005E800836044F61F62C2600361836102F00AFB04
:1005F80018BB4FF480530A930AA9154802F010FD5E
:10060800E8B9134802F05EFBD8B9002307930993B1
:1006180007A90F4802F098FEA8B9602300930022AA
:100628000192029204926946094802F04EFC60B9B0
:10063800074800F06BFB0FB000BDFFF779FEFFF72E
:1006480077FEFFF775FEFFF773FEFFF771FE00BF39
:10065800880100200004004010B592B000240B94DB
:100668000C940D940E940F94109411942C222146FE
:10067800684603F0A9FB1F481F4B03604EF65F2333
:10068800436084602723C36004614461846102F08D
:10069800B9FA30BB174802F0E5FA20BB30230B93B8
:1006A80000220C920D920E920F92109211920BA9A9
:1006B800104802F0CDFBC0B90023009301930293C8
:1006C800039304934FF40052059206930A936946E4
:1006D800084802F075FE50B9064800F017FB12B042
:1006E80010BDFFF725FEFFF723FEFFF721FEFFF7FA
:1006F8001FFE00BF3C0100200048014010B596B025
:100708000CAC28220021204603F05EFB002307934F
:10071800089309930A930B93019302930393049309
:100728000593069302230C93012210921022119232
:1007380013934FF450131593204600F0A3FFC0B94C
:100748000F23079302210891002309934FF4806235
:100758000A920B9307A801F0D7FA60B94FF48053B7
:1007680001930023069301A801F0D4FB28B916B021
:1007780010BDFFF7DDFDFFF7DBFDFFF7D9FD00003A
:1007880070B582B09E4B1B680021986803F01CFA74
:1007980000F054FFFFF7B2FFFFF712FDFFF7F8FD77
:1007A800FFF712FEFFF742FEFFF758FEFFF774FE51
:1007B800FFF7A6FEFFF7FEFEFFF74EFF914801F098
:1007C80059FE914C1021204601F01BFF40F64A03C8
:1007D80000221021204601F0FDFE8C4C204600F03E
:1007E80050FC0221204600F0BDFD894C0421204622
:1007F80002F0A6FC0C21204602F0A2FC854D002147
:10080800284602F09DFC3C21834802F037FD8348CE
:1008180002F0AAF8236800249C631C642B685C63BC
:100828002546A4E072B67E4B93E8030002AB03E9C9
:1008380003007C4B00221A7062B67B4E009B33602B
:100848007A4B019A1A600124794B1C7022461021B8
:100858004FF0904001F009FD224621464FF09040AC
:1008680001F003FD6A4B1B6832689A631A6400F052
:1008780003FF044680E001246D4B1C7022461021C2
:100888004FF0904001F0F1FC224621464FF0904095
:1008980001F0EBFC5E4B1B6840F6B7329A631A64B2
:1008A800624B644A1A6000F0E7FE044677E00124D0
:1008B8005F4B1C70224610214FF0904001F0D5FC90
:1008C800224621464FF0904001F0CFFC504B1B6868
:1008D8004FF4FA729A631A64544B564A1A6000F03D
:1008E800CBFE04465DE0544B00221A70FFF70CFD66
:1008F800524B1A68104418604FF48270FFF71AFDC3
:1009080053E000F0B9FE401BB0F52F7F05D2404BF5
:100918001B6800229A631A6429E080214FF09040F6
:1009280001F09CFC01280AD0394B1A680023936314
:100938001364424A13603E4B03221A7017E00122E7
:1009480010214FF0904001F090FC012211464FF029
:10095800904001F08AFC2E4B1B684FF4FA729A63A0
:100968001A6404E02A4B1B6800229A631A642D4B10
:100978001B78002B7FF456AF314B1B788BB172B6C6
:10098800304B93E8030002AB03E903002C4B002231
:100998001A7062B69DF80060012E3FF46CAF022E0B
:1009A80085D0254B1B78002B9DD1214B1B78DAB2C3
:1009B800022BA6D0032AD5D0012A1BD100F05CFE59
:1009C800001B1A4BD3ED007A9FED1F7A67EE877AEA
:1009D800FCEEE77A17EE903A9842C8D30C4B1B68A6
:1009E80000229A631A6400F047FE0546104B022263
:1009F8001A70BCE7064B1B6800229A631A64B6E7B4
:100A080018000020800200206C020020B0020020A4
:100A1800D401002088010020200200203C01002091
:100A2800980000208E00002088000020840000200C
:100A3800B0000020CDCC4C3E8C000020AC00002043
:100A48008D0000209000002000007A44FEE7FEE7B9
:100A5800FEE7FEE7FEE770477047704708B500F00D
:100A6800FFFD08BD08B5024800F09AFC08BD00BFAC
:100A7800B002002008B5024800F092FC08BD00BF93
:100A8800B002002008B5034801F0AEFF024801F0AB
:100A9800ABFF08BD200200203C01002082B00A4BB9
:100AA8009A6942F001029A619A6902F00102009281
:100AB800009ADA6942F08052DA61DB6903F0805308
:100AC8000193019B02B070470010024000B589B045
:100AD80000230393049305930693079302681C4B22
:100AE8009A4201D009B000BD03F5D633DA6942F065
:100AF8000072DA61DA6902F000720192019A5A69A9
:100B080042F400325A615B6903F400330293029B9A
:100B18004FF4C0530393022304930323069309233A
:100B2800079303A94FF0904001F0BAFA002211464A
:100B3800142001F0E3FB142001F0F0FB0022114621
:100B4800152001F0DBFB152001F0E8FBCAE700BF28
:100B58000064004030B587B00023019302930393EB
:100B6800049305930268144B9A4201D007B030BD34
:100B780003F5873303F5EC735A6942F480225A610E
:100B88005B6903F480230093009B012301930323F3
:100B9800029301AD094C2946204601F081FA02234F
:100BA8000193029300230393049308230593294692
:100BB800204601F075FAD9E72800014000040048F2
:100BC80000B589B000230393049305930693079314
:100BD8000268114B9A4201D009B000BD03F5CE332B
:100BE800DA6942F00052DA61DA6902F000520192E1
:100BF800019A5A6942F400325A615B6903F400337E
:100C08000293029B202303930323049303A94FF029
:100C1800904001F045FADFE70074004000B589B064
:100C28000023039304930593069307930268174BD5
:100C38009A4201D009B000BD03F564439A6942F4B1
:100C480000629A619A6902F400620192019A5A69F3
:100C580042F400325A615B6903F400330293029B49
:100C68004FF440730393022304930623079303A9C5
:100C78004FF0904001F014FA002211461A2001F0BA
:100C88003DFB1A2001F04AFBD4E700BF002C0140CD
:100C980000B585B00368B3F1804F07D0184A934276
:100CA80010D0184A934218D005B000BD03F504339C
:100CB800DA6942F00102DA61DB6903F001030193AA
:100CC800019BF1E7104BDA6942F00202DA61DB6955
:100CD80003F002030293029BE6E70B4B9A6942F486
:100CE80080229A619B6903F480230393039B00226B
:100CF80011461A2001F002FB1A2001F00FFBD3E77E
:100D080000040040004801400010024000B589B0CE
:100D18000023039304930593069307930368B3F1A1
:100D2800804F07D0244A93421BD0244A93422DD0A7
:100D380009B000BD03F504335A6942F400325A6120
:100D48005B6903F400330093009B0A230393022397
:100D580004930123079303A94FF0904001F0A0F9F1
:100D6800E6E7174B5A6942F400325A615B6903F4AB
:100D780000330193019B40230393022304930793B9
:100D880003A94FF0904001F08BF9D1E70C4B5A6959
:100D980042F480225A615B6903F480230293029B28
:100DA80020230393022304930A23079303A90548E6
:100DB80001F076F9BCE700BF00040040004801409C
:100DC800001002400004004800B589B000230393D6
:100DD80004930593069307930268144B9A4201D033
:100DE80009B000BD03F5E633DA6942F40032DA618E
:100DF800DA6902F400320192019A5A6942F4003227
:100E08005A615B6903F400330293029B48F20403BE
:100E1800039302230493032306930723079303A949
:100E28004FF0904001F03CF9DAE700BF0044004081
:100E3800002800F0A18038B5044690F82030D3B1DE
:100E48002268136843F00103136000F015FC05469F
:100E580023685A6812F0010F10D100F00DFC401BF6
:100E68000A28F5D9636A43F400336362052384F8DA
:100E78002030012038BDFFF729FEE1E71A6822F08B
:100E880002021A6000F0F8FB054623685A6812F05F
:100E9800020F0DD000F0F0FB401B0A28F5D9636A59
:100EA80043F400336362052384F820300120E1E72E
:100EB800227E012A3DD01A6822F080021A60637EE1
:100EC800012B3BD02268136823F040031360A37EF4
:100ED800012B39D02268136823F020031360E37EC6
:100EE800012B37D02268136843F010031360237F67
:100EF800012B35D02268136823F008031360637F41
:100F0800012B33D02268136823F004031360A3680D
:100F1800E268134322691343626913436268013A22
:100F280021681343CB6100206062012384F82030DC
:100F3800A0E71A6842F080021A60C0E722681368C6
:100F480043F040031360C2E72268136843F02003AC
:100F58001360C4E72268136823F010031360C6E720
:100F68002268136843F008031360C8E7226813680F
:100F780043F004031360CAE701207047026890F841
:100F88002030013BDBB2012B05D9436A43F48023AF
:100F980043620120704730B4D2F8003243F00103B5
:100FA800C2F800324B6903F01F03012000FA03F373
:100FB800D2F81C026FEA030C20EA0300C2F81C02F4
:100FC800C869B0B9D2F80C020CEA0000C2F80C02E9
:100FD8008C884869CD6844EA0544483042F8304076
:100FE8000C8848698D6844EA0544483002EBC00023
:100FF8004460C86901281BD0886980BBD2F8040204
:101008000CEA0000C2F80402086970BBD2F81402A6
:101018000CEA0000C2F81402096A01292BD0D2F8A0
:10102800003223F00103C2F80032002030BC7047C0
:10103800D2F80C021843C2F80C028C8848690D6873
:1010480044EA0544483042F830408C8948698D6844
:1010580044EA0544483002EBC0004460CCE7D2F8CB
:1010680004021843C2F80402CEE7D2F81402184367
:10107800C2F81402D0E7D2F81C120B43C2F81C3293
:10108800CDE770B5044690F82030012B06D0436AAE
:1010980043F4002343620126304670BDDEB20223CA
:1010A80080F820300268136823F00103136000F011
:1010B800E3FA054623685B6813F0010F0CD000F0D3
:1010C800DBFA431B0A2BF5D9636A43F400336362E6
:1010D800052384F82030DFE700266662DCE730B5B8
:1010E80090F820C00468A4680CF1FF3C5FFA8CFCFF
:1010F800BCF1010F62D814F0E05F59D0C4F3016C61
:10110800012404FA0CF41C608B68002B3DD10D6897
:10111800CB68046843EA45550CF118031B01E550F8
:1011280003680C690CF1180E03EB0E135C600B7D61
:10113800012B35D0D17993791B0443EA01635179A6
:1011480043EA012314790168234301EB0C11C1F828
:101158008C31D17893781B0443EA0163517843EAD0
:101168000123117802680B4302EB0C12C2F8883194
:1011780002680CF1180C4FEA0C1C52F80C3043F0C2
:10118800010342F80C3000201DE04C6843EAC40318
:10119800CC6823430CF11804240105682B51BFE7E0
:1011A800036803EB0E13596841F480715960C1E775
:1011B800436A43F400134362012004E0436A43F4A2
:1011C80080234362012030BD90F82030013BDBB220
:1011D800012B01D9002070470368986810F08060DF
:1011E80000D001209A6812F0006F00D001309B688F
:1011F80013F0805FEFD00130704790F820C00CF1F9
:10120800FF3C5FFA8CFCBCF1010F00F2A58030B402
:1012180051B90468E46814F0030F10D1436A43F429
:101228000013436201207EE00468246914F0030F70
:1012380005D1436A43F400134362012073E0056853
:1012480001F11B0424012C5904F004049460002CBF
:101258006BD1056801F11B0424012C59640D14603D
:10126800046801F11B0C4FEA0C1C54F80C4004F004
:101278000204D4600468A444DCF8045015F0080F94
:101288005BD008241461046801F11B0C04EB0C14F6
:101298006468C4F307249461046804EB0C1464685C
:1012A800240C5461026802EB0112D2F8B8211A70BA
:1012B800026802EB0112D2F8B821C2F307225A7071
:1012C800026802EB0112D2F8B821C2F307429A7001
:1012D800026802EB0112D2F8B821120EDA70026825
:1012E80002EB0112D2F8BC211A71026802EB01125A
:1012F800D2F8BC21C2F307225A71026802EB01122C
:10130800D2F8BC21C2F307429A71026802EB0112BB
:10131800D2F8BC21120EDA71C1B90268D36843F061
:101328002003D360002030BC7047056801F11B041E
:1013380024012C59E408546092E701F11B0504EBE1
:101348000514646804F00F0414619CE702681369CB
:1013580043F020031361E5E7436A43F480234362C3
:101368000120704790F82030013BDBB2012B05D9F2
:10137800436A43F48023436201207047026853693B
:101388000B435361002070477047704770477047A0
:10139800704770477047704770477047704770478D
:1013A8002DE9F84F054603685C69D3F804809F6807
:1013B800D3F80CA0D3F81090D3F818B014F00106A5
:1013C8003BD017F0010616D001229A6017F0020FE1
:1013D80008D117F0040F0CD117F0080606D04FF407
:1013E800805608E0FFF7D0FF002604E0FFF7CFFFA4
:1013F80001E04FF4006617F4807F0DD02B684FF49E
:1014080080729A6017F4007F40F0968017F4806F1E
:1014180000F0968046F4005617F4803F0DD02B68F4
:101428004FF480329A6017F4003F40F0938017F42D
:10143800802F00F0938046F4004614F0080F07D080
:101448001AF0100F04D046F400762B681022DA60E8
:1014580014F0040F03D01AF0080F40F0898014F03C
:10146800020F05D02B68DB6813F0030F40F087806C
:1014780014F0400F07D019F0100F04D046F480661E
:101488002B6810221A6114F0200F02D019F0080FEF
:1014980079D114F0100F04D02B681B6913F0030FD7
:1014A80078D114F4003F02D018F0100F76D114F45C
:1014B800803F02D018F0080F77D114F4004F37D0CE
:1014C80018F0040F31D014F4807F04D01BF0010F02
:1014D80001D046F0010614F4007F04D01BF0020F7F
:1014E80001D046F0020614F4806F04D01BF0040FFC
:1014F80001D046F0040614F4006F16D01BF0700BF0
:1015080013D0BBF1400F66D056D8BBF1200F5CD08A
:10151800BBF1300F5CD0BBF1100F01D146F00806CB
:101528002A68936923F0700393612B6804225A6038
:10153800002E56D1BDE8F88F2846FFF726FF6BE747
:1015480017F4006F02D046F4804665E72846FFF797
:101558001FFF61E72846FFF719FF6EE717F4002F12
:1015680002D046F4803668E72846FFF712FF64E7A2
:101578002B680822DA602846FFF70CFF6FE7284639
:10158800FEF762FE74E72B6808221A612846FFF707
:1015980003FF7EE72846FFF7FEFE82E72B6810224E
:1015A8005A602846FFF7F9FE81E72B6808225A603F
:1015B8002846FFF7F3FE80E7BBF1500F0ED0BBF1D2
:1015C800600FADD146F48076AAE746F01006A7E78B
:1015D80046F02006A4E746F04006A1E746F080065C
:1015E8009EE76B6A33436B622846FFF7D8FEA1E794
:1015F80010B504460E4B18680E4B1A784FF47A73E0
:10160800B3FBF2F3B0FBF3F000F096FE68B90F2CD1
:1016180001D901200AE0002221464FF0FF3000F0F6
:101628006DFE054B1C60002000E0012010BD00BFCE
:1016380008000020000000200400002008B5074A28
:10164800136843F010031360032000F045FE0020E8
:10165800FFF7CEFFFFF722FA002008BD0020024066
:10166800034A1168034B1B780B441360704700BF93
:10167800D802002000000020014B1868704700BF06
:10168800D8020020002800F0FF8270B582B004461E
:10169800036813F0010F3BD0B44B5B6803F00C03F5
:1016A800042B1ED0B14B5B6803F00C03082B13D03E
:1016B8006368B3F5803F68D0002B40F0928003F157
:1016C800804303F504331A6822F480321A601A68DA
:1016D80022F480221A605DE0A44B5B6813F4803F1B
:1016E800E6D04FF4003393FAA3F3A04B19684FF4F4
:1016F800003393FAA3F3B3FA83F303F01F03012231
:1017080002FA03F30B4203D06368002B00F0BE8299
:10171800236813F0020F00F0C480944B5B6813F049
:101728000C0F00F09C80914B5B6803F00C03082BB6
:1017380000F08F802369002B00F0F080012292FADC
:10174800A2F3B3FA83F303F1845303F584139B00E4
:101758001A60FFF791FF0546022393FAA3F3834B20
:101768001968022393FAA3F3B3FA83F303F01F0370
:10177800012202FA03F30B4240F0C280FFF77CFF1C
:10178800401B0228E8D9032089E2784A136843F409
:1017980080331360754AD36A23F00F03A1680B43A3
:1017A800D3626368002B36D0FFF766FF05464FF417
:1017B800003393FAA3F36D4B19684FF4003393FA8F
:1017C800A3F3B3FA83F303F01F03012202FA03F32E
:1017D8000B429DD1FFF750FF401B6428E7D9032037
:1017E8005DE2B3F5A02F09D0604B1A6822F480326D
:1017F8001A601A6822F480221A60CBE703F180434A
:10180800A3F53C331A6842F480221A601A6842F43D
:1018180080321A60BEE7FFF72FFF05464FF400330A
:1018280093FAA3F3514B19684FF4003393FAA3F3D7
:10183800B3FA83F303F01F03012202FA03F30B4206
:101848003FF466AFFFF718FF401B6428E6D9032072
:1018580025E2464B5B6813F4803F7FF46BAF0223AD
:1018680093FAA3F3414B1968022393FAA3F3B3FA4B
:1018780083F303F01F03012202FA03F30B4203D0A0
:101888002369934240F004823848036823F0F80340
:101898006169F82292FAA2F2B2FA82F291400B43FD
:1018A8000360236813F0080F00F08C80A369002BF5
:1018B80060D0012191FAA1F2B2FA82F22C4B1344C2
:1018C8009B001960FFF7D8FE0546022393FAA3F29E
:1018D80093FAA3F293FAA3F2244A516A93FAA3F370
:1018E800B3FA83F303F01F03012202FA03F30B4256
:1018F80068D1FFF7C1FE401B0228E6D90320CEE1DC
:101908001A48036823F0F8036169F82292FAA2F2F0
:10191800B2FA82F291400B430360C2E7012393FAC3
:10192800A3F3B3FA83F303F1845303F584139B0001
:1019380000221A60FFF7A0FE0546022393FAA3F3DC
:101948000A4B1968022393FAA3F3B3FA83F303F05B
:101958001F03012202FA03F30B42A2D0FFF78CFE09
:10196800401B0228E9D9032099E100BF001002407A
:1019780020819010012292FAA2F2B2FA82F2B74BB9
:1019880013449B0000221A60FFF776FE05460223E7
:1019980093FAA3F293FAA3F293FAA3F2B04A516A24
:1019A80093FAA3F3B3FA83F303F01F03012202FAB5
:1019B80003F30B4206D0FFF75FFE401B0228E6D96F
:1019C80003206CE1236813F0040F00F0A980A44BF6
:1019D800DB6913F0805F20D1A14BDA6942F08052B5
:1019E800DA61DB6903F080530193019B01259D4B6C
:1019F8001B6813F4807F12D0E368012B23D073BBDC
:101A080003F1804303F504331A6A22F001021A62D3
:101A18001A6A22F004021A621AE00025E7E7914ADE
:101A2800136843F480731360FFF726FE06468D4B58
:101A38001B6813F4807FDFD1FFF71EFE801B64282C
:101A4800F5D903202BE1864A136A43F00103136298
:101A5800E368002B3CD0FFF70FFE06462EE0052B6F
:101A680009D07F4B1A6A22F001021A621A6A22F020
:101A780004021A62ECE77A4B1A6A42F004021A620C
:101A88001A6A42F001021A62E2E7022393FAA3F308
:101A9800734B596A022393FAA3F3B3FA83F303F05F
:101AA8001F03012202FA03F3194238D1FFF7E4FDBC
:101AB800801B41F28833984200F2EC80022393FAAB
:101AC800A3F293FAA3F3002BDFD0654B196AE1E781
:101AD800FFF7D2FD064618E0022393FAA3F3604B02
:101AE800596A022393FAA3F3B3FA83F303F01F03AB
:101AF800012202FA03F3194211D0FFF7BDFD801B42
:101B080041F28833984200F2C780022393FAA3F285
:101B180093FAA3F3002BDFD0514B196AE1E7B5BB69
:101B2800E369002B00F0BA804D4A526802F00C02BB
:101B3800082A00F09980022B2FD04FF0807393FA77
:101B4800A3F3B3FA83F303F1845303F584139B00DF
:101B580000221A60FFF790FD04464FF0007393FAD5
:101B6800A3F33F4B19684FF0007393FAA3F3B3FA4A
:101B780083F303F01F03012202FA03F319426BD027
:101B8800FFF77AFD001B0228E7D9032087E0344AD3
:101B9800D36923F08053D361C2E74FF0807393FA7F
:101BA800A3F3B3FA83F303F1845303F584139B007F
:101BB80000221A60FFF760FD05464FF0007393FAA4
:101BC800A3F3274B19684FF0007393FAA3F3B3FA02
:101BD80083F303F01F03012202FA03F3194206D02C
:101BE800FFF74AFD401B0228E7D9032057E01C49AC
:101BF8004B6823F47413626A206A024313434B60F0
:101C08004FF0807393FAA3F3B3FA83F303F1845389
:101C180003F584139B0001221A60FFF72DFD04468B
:101C28004FF0007393FAA3F30D4B19684FF000734C
:101C380093FAA3F3B3FA83F303F01F03012202FA22
:101C480003F3194206D1FFF717FD001B0228E7D955
:101C5800032024E0002022E0002020E020819010D2
:101C68000010024000700040012B1AD0104B5B6836
:101C780003F48031226A914215D103F47013626A29
:101C8800934212D100200AE001207047012006E0AB
:101C9800012004E0032002E0032000E0002002B05D
:101CA80070BD0120FBE70120F9E70120F7E700BF3D
:101CB800001002400F4B5B6803F00C02082A01D0A9
:101CC8000D487047C3F383420C49885C094AD26ABD
:101CD80002F00F020A498A5C13F4803F05D0064BD4
:101CE800B3FBF2F303FB00F07047064B03FB00F075
:101CF800704700BF0010024000127A00D04200086E
:101D0800C042000800093D00002800F0BE8070B500
:101D18000D460446614B1B6803F007038B420BD248
:101D28005E4A136823F007030B431360136803F03C
:101D380007038B4240F0AB80236813F0020F06D0F4
:101D4800574A536823F0F003A1680B435360236894
:101D580013F0010F5AD06368012B2DD0022B40D00D
:101D6800022292FAA2F24E4A1068022292FAA2F2D3
:101D7800B2FA82F202F01F02012101FA02F21042C5
:101D880000F0878046494A6822F0030213434B60FB
:101D9800FFF772FC0646424B5B6803F00C0362686F
:101DA800B3EB820F32D0FFF767FC801B41F2883318
:101DB8009842F0D9032067E04FF4003292FAA2F279
:101DC800374A10684FF4003292FAA2F2B2FA82F25D
:101DD80002F01F02012101FA02F20242D2D10120CF
:101DE80052E04FF0007292FAA2F22D4A10684FF0BA
:101DF800007292FAA2F2B2FA82F202F01F020121F4
:101E080001FA02F21042BDD101203DE0234B1B68CC
:101E180003F00703AB420AD9204A136823F00703EB
:101E28002B431360136803F00703AB4233D12368D5
:101E380013F0040F06D01A4A536823F4E063E168EC
:101E48000B435360236813F0080F07D0144A5368F4
:101E580023F46053216943EAC1035360FFF72AFF63
:101E68000F4B5B6803F0F003F02292FAA2F2B2FA89
:101E780082F2D3400B4AD35CD8400B4B18600B4B13
:101E88001868FFF7B5FB002070BD012070470120DE
:101E9800FAE70120F8E70120F6E700BF002002403A
:101EA80000100240E842000808000020040000205A
:101EB800014B1868704700BF0800002008B5FFF7FD
:101EC800F7FF074B5B6803F4E0634FF4E06292FAB4
:101ED800A2F2B2FA82F2D340024AD35CD84008BDDB
:101EE80000100240E042000808B5FFF7E1FF074B89
:101EF8005B6803F460534FF4605292FAA2F2B2FAAC
:101F080082F2D340024AD35CD84008BD0010024098
:101F1800E0420008F0B583B00446036813F4803F3C
:101F280044D05C4BDB6913F0805F6ED1594BDA69A2
:101F380042F08052DA61DB6903F080530193019B20
:101F48000125554B1B6813F4807F60D0514B1B6AE9
:101F580013F4407321D0626802F440729A421CD094
:101F68004C48016A21F440764FF4803393FAA3F287
:101F7800B2FA82F2494F3A4492004FF0010CC2F88B
:101F880000C093FAA3F3B3FA83F33B449B00002207
:101F98001A60066211F0010F4DD13E4A136A23F40C
:101FA800407361680B431362002D6AD1236813F0F4
:101FB800010F06D0374A136B23F00303A1680B43C4
:101FC8001363236813F0200F06D0324A136B23F0F3
:101FD8001003E1680B431363236813F0800F06D0E6
:101FE8002C4AD36A23F4F87321690B43D36223681C
:101FF80013F4805F4CD0274A136B23F48073616914
:102008000B431363002003B0F0BD002599E7224A73
:10201800136843F480731360FFF72EFB06461E4BCC
:102028001B6813F4807F91D1FFF726FB801B64287F
:10203800F5D90320E7E7FFF71FFB064617E0022361
:1020480093FAA3F3134B596A022393FAA3F3B3FA4F
:1020580083F303F01F03012202FA03F30B429CD11E
:10206800FFF70AFB801B41F2883398420ED80223FF
:1020780093FAA3F293FAA3F3002BE0D0054B196A65
:10208800E2E7D36923F08053D3618FE70320BAE7EF
:102098000020B8E700100240007000400081901056
:1020A800F0B583B0002362E085685E000324B44085
:1020B80025EA0405CC68B4402C438460456825EAC9
:1020C8000C054C68C4F300149C402C4344605FE04A
:1020D800DD08083550F8254003F0070C4FEA8C0C52
:1020E8004FF00F0E0EFA0CFE24EA0E0E0C6904FADD
:1020F8000CF444EA0E0440F8254060E0032400E0B4
:10210800002404FA0EF42C430CF1020C4F4D45F850
:102118002C404F4CA568D44325EA02064F6817F4B3
:10212800801F01D042EA0506494DAE60ED6804EA19
:1021380005064F6817F4001F01D042EA0506444D12
:10214800EE606D6804EA05064F6817F4003F01D099
:1021580042EA05063E4D6E602D682C404E6816F426
:10216800803F01D042EA0504394A146001330A6805
:1021780032FA03F468D04FF0010C0CFA03FC1CEAA5
:102188000202F3D04C6804F00304013C012C8BD903
:102198004C6804F00304032C0CD0C4685D004FF0B5
:1021A800030C0CFA05FC24EA0C0C8C68AC4044EADD
:1021B8000C04C4604C6804F00304022C88D0046842
:1021C8004FEA430E4FF0030C0CFA0EFC24EA0C0CF9
:1021D8004C6804F0030404FA0EF444EA0C040460A6
:1021E8004C6814F4403FC1D01A4CA56945F001056C
:1021F800A561A46904F001040194019C4FEA930CC1
:102208000CF10205114C54F8255003F0030E4FEA67
:102218008E0E0F2404FA0EF425EA0405B0F1904F4F
:102228003FF46EAF0C4CA0420AD004F58064A04283
:1022380008D004F58064A0423FF460AF052460E74D
:1022480001245EE702245CE703B0F0BD0000014012
:1022580000040140001002400004004803691942CC
:1022680001D001207047002070470AB18161704792
:1022780081627047002808DB0901C9B200F160409B
:1022880000F5614080F80013704700F00F00090165
:10229800C9B2014B1954704714ED00E000B500F0C5
:1022A8000700C0F1070CBCF1040F28BF4FF0040C65
:1022B800031D062B0ED9C31E4FF0FF3E0EFA0CF07D
:1022C80021EA000199400EFA03FE22EA0E0241EAD1
:1022D800020000BD0023EFE7074AD36823F4E06358
:1022E8001B041B0C000200F4E060034343F0BF63CF
:1022F80043F40033D360704700ED00E010B50446A6
:10230800054BD868C0F30220FFF7C8FF01462046F6
:10231800FFF7B0FF10BD00BF00ED00E0002807DBAD
:1023280000F01F02400901239340024A42F820307E
:10233800704700BF00E100E00138B0F1807F0BD2A8
:102348004FF0E0235861054AF02182F8231000205D
:10235800986107221A6170470120704700ED00E07C
:1023680030B585B000230393002878D0044690F850
:10237800295015F0100503D00125284605B030BDB9
:1023880003F1804303F504339A6942F001029A612C
:102398009B6903F001030193019BFEF7DBFB2268B5
:1023A800116801F0300194F829300BB984F828300D
:1023B8006068602844D06060002302931368029329
:1023C800029B23F4800323F0700303430293A36862
:1023D800029803430293029B23F44023A06903431A
:1023E8000293029B23F47053E06800F47050034397
:1023F8000293029B23F40043206903430293636919
:10240800029803430293E369029803430293236A01
:10241800029803430293029B136023681B6813F01E
:10242800300F18D0B9B90F4B1B689B090E4AA2FB95
:1024380003239B09013303EB83039B00039307E00A
:102448000A4B9A42B7D00A48B5E7039B013B03936E
:10245800039B002BF9D1012384F829308DE701254E
:102468008BE700BF08000020632D3E0520000140D7
:102478007000400030B482B000230193002800F0BF
:102488008980034690F8290010F0100040F08480FD
:1024980093F82920012A01D001207EE01A684049DA
:1024A8008A423DD008318A4237D00122596A11F058
:1024B800300F1FD011F0100F3AD012F0010F32D0A8
:1024C800384CA16A1143A162596A11F0200F43D018
:1024D80012F0010F3BD0334CE16A1143E16212F074
:1024E800010148D02F4D6C6A14436C62002947D013
:1024F8002C494A6319680A6842F001020A600222FC
:1025080083F82920284B1B689B09284AA2FB032330
:102518009B090133DB00019338E04FF08042C5E7A7
:102528004FF48002C2E71F4CA1681143A160CBE7BA
:1025380012F0010F05D01B4CA16A21EA0201A16229
:10254800C2E7184CA16821EA0201A160BCE7154C5A
:10255800E1681143E160C2E712F0010F05D0114CA8
:10256800E16A21EA0201E162B9E70E4CE16821EA79
:102578000201E160B3E70B4D6C6814436C60B5E78A
:1025880008494A61B6E7019B013B0193019B002B77
:10259800F9D102E0012000E0012002B030BC704710
:1025A800200001400004014008000020632D3E0582
:1025B80070B110B50446037933B1022323710020AA
:1025C80020610123237110BD4371FEF7F9FAF4E786
:1025D8000120704710B483B0002401940068019072
:1025E80051B901990A4408320192019A13600020F6
:1025F80003B05DF8044B704701990A441432019204
:10260800F3E74279012A29D010B403460122427126
:10261800022018711C6820688A400243226089B928
:1026280019680A6802F03C023C2A06D001221A7195
:10263800002058715DF8044B70474A6842F0010267
:102648004A60F3E719680A6802F47012B2F5701F5D
:10265800ECD14A6842F002024A60E7E7022070477C
:102668008C464179012932D010B5034601214171C8
:102678000221017104682168164884421AD040F684
:10268800FE70904021EA000EDCF80010DCF808002B
:102698000143914041EA0E0121601C682168C02075
:1026A80000FA02F221EA0202226001221A710020D5
:1026B800587110BD002AE2D140F6FE70904021EA20
:1026C800000EDCF80000DCF804100143E1E702200A
:1026D800704700BF0074004030B4026A036A23F0F8
:1026E800010303624468836923F4803323F073038E
:1026F8000D681D4322F002028B681343184A90426A
:102708000BD002F5A052904207D002F580629042A9
:1027180003D002F58062904205D123F00803CA680D
:102728001A4322F004030E4A90420BD002F5A0523D
:10273800904207D002F58062904203D002F5806291
:10274800904205D124F440744A6922438C691443A9
:10275800446085614A684263036230BC704700BFC9
:10276800002C014030B4036A026A22F480720262CB
:102778004268C46924F4803C2CF0730C0C6844EA69
:102788000C0523F400738C6843EA0423124CA0421E
:102798000BD0124CA0420FD004F58064A0420BD09D
:1027A80004F58064A0420FD106E023F40063CC68EE
:1027B80043EA042323F4806322F440524C6942EA3A
:1027C80004128C6942EA04124260C5614A68C26315
:1027D800036230BC704700BF002C0140004001403C
:1027E80030B4026A036A23F4805303624468C369FD
:1027F80023F0807323F4E6430D6843EA052322F4AB
:1028080000528D6842EA05320D4DA8420BD005F5FD
:10281800A055A84207D005F58065A84203D005F564
:102828008065A84204D124F480444D6944EA8514A3
:102838004460C3614B680364026230BC704700BFE8
:10284800002C014030B4036A026A22F4803202622A
:102858004468426D22F4803222F070020D682A43E7
:1028680023F400338D6843EA05430D4DA8420BD08D
:1028780005F5A055A84207D005F58065A84203D004
:1028880005F58065A84204D124F480344D6944EAF2
:102898000524446042654A688265036230BC70471B
:1028A800002C014030B4026A036A23F480130362E7
:1028B8004468436D23F0807323F4E0430D6843EAD2
:1028C800052322F400128D6842EA05520D4DA842F4
:1028D8000BD005F5A055A84207D005F58065A8429C
:1028E80003D005F58065A84204D124F480244D69FD
:1028F80044EA8524446043654B68C365026230BC82
:10290800704700BF002C014010B4036A046A24F029
:1029180001040462846924F0F00C4CEA021223F0EA
:102928000A030B43826103625DF8044B704710B4DD
:10293800036A046A24F010040462846924F4704C65
:102948004CEA023223F0A00343EA011382610362D6
:102958005DF8044B7047836823F070030B4343F022
:10296800070383607047000090F83D30012B2AD19F
:10297800022380F83D300268D36843F00103D36036
:102988000368144A934210D0B3F1804F0DD0A2F5DA
:102998009432934209D002F59E32934205D01A68C8
:1029A80042F001021A600020704799680A4A0A40FA
:1029B800062A0AD0B2F5803F09D01A6842F001020F
:1029C8001A600020704701207047002070470020DF
:1029D800704700BF002C0140070001007047704796
:1029E800704770477047704770B504460368DE68E3
:1029F8001D6915F0020F10D016F0020F0DD06FF000
:102A080002021A610123037703689B6913F0030F1D
:102A180064D0FFF7E6FF0023237715F0040F12D0E8
:102A280016F0040F0FD023686FF004021A61022316
:102A3800237723689B6913F4407F55D02046FFF71E
:102A4800D0FF0023237715F0080F12D016F0080FD7
:102A58000FD023686FF008021A61042323772368D4
:102A6800DB6913F0030F46D02046FFF7BAFF0023B7
:102A7800237715F0100F12D016F0100F0FD023681F
:102A88006FF010021A61082323772368DB6913F4B7
:102A9800407F37D02046FFF7A4FF0023237715F0A7
:102AA800010F02D016F0010F33D115F0800F02D0BC
:102AB80016F0800F35D115F4807F02D016F0800F04
:102AC80037D115F0400F02D016F0400F39D115F06C
:102AD800200F02D016F0200F3BD170BDFFF780FF0A
:102AE8002046FFF77FFF96E72046FFF779FF20464D
:102AF800FFF778FFA5E72046FFF772FF2046FFF7AC
:102B080071FFB4E72046FFF76BFF2046FFF76AFF27
:102B1800C3E723686FF001021A612046FDF7E6FB60
:102B2800C3E723686FF080021A61204600F08DFC2D
:102B3800C1E723686FF480721A61204600F086FCB2
:102B4800BFE723686FF040021A612046FFF74BFF8A
:102B5800BDE723686FF020021A61204600F074FC7C
:102B6800BBE700000368264A904206D0B0F1804FC8
:102B780003D0A2F59432904203D123F070034A683F
:102B880013431F4A904212D0B0F1804F0FD0A2F5E4
:102B9800943290420BD002F59E32904207D002F553
:102BA8008062904203D002F58062904203D123F400
:102BB8004073CA68134323F080034A6913430360D0
:102BC8008B68C3620B6883620D4B98420BD003F588
:102BD800A053984207D003F58063984203D003F5C9
:102BE8008063984201D10B69036301234361036940
:102BF80013F0010F03D0036923F001030361704749
:102C0800002C014060B310B5044690F83D3013B372
:102C1800022384F83D30214651F8040BFFF7A2FF48
:102C2800012384F8483084F83E3084F83F3084F833
:102C3800403084F8413084F8423084F8433084F8D6
:102C4800443084F8453084F8463084F8473084F8B6
:102C58003D30002010BD80F83C30FEF719F8D7E76A
:102C68000120704760B310B5044690F83D3013B3A7
:102C7800022384F83D30214651F8040BFFF772FF18
:102C8800012384F8483084F83E3084F83F3084F8D3
:102C9800403084F8413084F8423084F8433084F876
:102CA800443084F8453084F8463084F8473084F856
:102CB8003D30002010BD80F83C30FFF78FFED7E78D
:102CC8000120704760B310B5044690F83D3013B347
:102CD800022384F83D30214651F8040BFFF742FFE8
:102CE800012384F8483084F83E3084F83F3084F873
:102CF800403084F8413084F8423084F8433084F816
:102D0800443084F8453084F8463084F8473084F8F5
:102D18003D30002010BD80F83C30FFF760FED7E75B
:102D280001207047002853D0F8B50D46044690F8A6
:102D38003D30002B47D0022384F83D302268936849
:102D480023F4A03323F007039360214651F8040BC2
:102D5800FFF708FF21688B688A690E6A286818439C
:102D680022F4407222F00302AB68AF6943EA0723FA
:102D7800134323F47C4323F0FC03EA68EF6942EA37
:102D880007221A432B6A1B032F6943EA07131343CD
:102D980026F0AA066A686D6942EA0512324388601D
:102DA80021688B6123681A62012384F8483084F80B
:102DB8003E3084F83F3084F8443084F8453084F855
:102DC8003D300020F8BD80F83C30FDF727FFB2E722
:102DD8000120704730B4036A026A22F010020262CE
:102DE8004268846924F0807C2CF4E64C0C684CEA38
:102DF800042423F020038D6843EA0513124DA842EA
:102E08000BD0124DA8420FD005F58065A8420BD013
:102E180005F58065A8420FD106E023F08003CD6850
:102E280043EA051323F0400322F440624D6942EA65
:102E380085028D6942EA8502426084614A6882633C
:102E4800036230BC704700BF002C014000400140C5
:102E580090F83C30012B36D010B50446012380F899
:102E68003C30142A2AD8DFE802F00B292929102936
:102E78002929152929291A2929291F292929240015
:102E88000068FFF729FC002019E00068FFF7A2FF9F
:102E9800002014E00068FFF765FC00200FE00068E0
:102EA800FFF79EFC00200AE00068FFF7CBFC00203B
:102EB80005E00068FFF7F6FC002000E00120002391
:102EC80084F83C3010BD0220704738B590F83C308B
:102ED800012B00F0958004460D46012380F83C3014
:102EE800142A00F28880DFE802F00B8686861F86A7
:102EF800868634868686488686865D8686867100BE
:102F08000068FFF7E9FB2268936943F008039361BF
:102F18002268936923F004039361226893692969FD
:102F28000B439361002067E00068FFF753FF2268B6
:102F3800936943F4006393612268936923F480637F
:102F4800936122689369296943EA01239361002008
:102F580052E00068FFF706FC2268D36943F00803D3
:102F6800D3612268D36923F00403D3612268D3694B
:102F780029690B43D36100203EE00068FFF730FC6D
:102F88002268D36943F40063D3612268D36923F4C8
:102F98008063D3612268D369296943EA0123D36135
:102FA800002029E00068FFF74DFC2268536D43F0CC
:102FB800080353652268536D23F0040353652268A0
:102FC800536D29690B435365002015E00068FFF72E
:102FD80069FC2268536D43F4006353652268536D9E
:102FE80023F4806353652268536D296943EA0123FA
:102FF8005365002000E00120002384F83C3038BDF0
:103008000220FCE710B4846824F47F4C42EA0322CF
:103018000A4342EA0C0282605DF8044B70470000E4
:1030280090F83C30012B76D010B50446012380F887
:103038003C30022380F83D3002689068374B0340EB
:1030480093600B68602B4CD023D8402B54D011D8F8
:10305800202B03D00AD80BB1102B05D119462068B4
:10306800FFF779FC002028E0012026E0302BF5D07E
:10307800012022E0502B0AD1CA6849682068FFF76E
:1030880043FC50212068FFF766FC002015E0012072
:1030980013E0B3F5805F3AD0B3F5005F14D0702B1E
:1030A80037D1CB684A6889682068FFF7ABFF226888
:1030B800936843F0770393600020012384F83D3040
:1030C800002384F83C3010BDCB684A6889682068C2
:1030D800FFF798FF2268936843F4804393600020C9
:1030E800EBE7CA6849682068FFF721FC602120687F
:1030F800FFF731FC0020E0E7CA6849682068FFF75D
:1031080003FC40212068FFF726FC0020D5E70020BB
:10311800D3E70120D1E70220704700BF8800FEFFF7
:1031280001F01F014FF0010C0CFA01FC036A23EABD
:103138000C030362036A8A4013430362704700006A
:1031480010B50446102928D8DFE801F009272727F9
:103158000F272727152727271B272727210090F820
:103168003E30013B18BF01231CE090F83F30013B83
:1031780018BF012316E090F84030013B18BF012327
:1031880010E090F84130013B18BF01230AE090F8A5
:103198004230013B18BF012304E090F84330013B63
:1031A80018BF0123002B5ED110291ED8DFE801F0DB
:1031B800091D1D1D0D1D1D1D111D1D1D151D1D1D6F
:1031C8001900022384F83E3012E0022384F83F30CD
:1031D8000EE0022384F840300AE0022384F84130EC
:1031E80006E0022384F8423002E0022384F84330E8
:1031F80001222068FFF794FF23681E4A93420BD0F0
:1032080002F5A052934207D002F58062934203D0A0
:1032180002F58062934203D15A6C42F400425A6428
:103228002368144A934210D0B3F1804F0DD0A2F511
:103238009432934209D002F59E32934205D01A681F
:1032480042F001021A6000200EE099680A4A0A401A
:10325800062A0AD0B2F5803F09D01A6842F0010266
:103268001A60002000E0012010BD0020FCE70020CB
:10327800FAE700BF002C01400700010038B50446FA
:1032880090F83E00C0B294F83F3094F84420D2B28F
:1032980094F845C00D46B1B9012849D1012A48D151
:1032A800022384F83E3084F844307DB3042D39D0AD
:1032B800012200212068FFF733FF01220421206842
:1032C800FFF72EFF27E0DBB25FFA8CFC042912D04F
:1032D800012833D1012B2CD1012A31D1BCF1010FA6
:1032E80030D1022384F83E3084F83F3084F84430EB
:1032F80084F84530D9E7012B1CD1BCF1010F1BD153
:10330800022384F83F3084F84530CEE701220021BB
:103318002068FFF705FF2268136843F00103136074
:10332800002006E0012204212068FFF7F9FEF2E7F9
:10333800012038BD0120FCE71846FAE70120F8E72C
:103348001846F6E71046F4E790F83C20012A33D0F7
:1033580030B40346012280F83C20022280F83D2048
:10336800006842688468154DA84220D022F0700297
:103378000D682A4342601A68104882420AD0B2F1A6
:10338800804F07D0A0F59430824203D000F59E30DC
:10339800824204D124F0800489682143916001228B
:1033A80083F83D20002083F83C0030BC704722F4AD
:1033B80070024D682A43D9E702207047002C01406B
:1033C80090F83C30012B3BD010B40246012380F822
:1033D8003C30CB6823F440738868034323F480634C
:1033E8004868034323F400630868034323F48053C5
:1033F8000869034323F400534869034323F48043D3
:10340800886A034323F47023886943EA00431068F9
:103418000C4CA04206D04364002082F83C005DF8C2
:10342800044B704723F470034C6A43EA045323F0B7
:103438008073CC69234323F00073096A0B43EAE7DE
:1034480002207047002C014070477047704702689F
:1034580052E8003F23F4907342E800310029F6D186
:10346800026802F1080353E8003F23F00103083221
:1034780042E800310029F3D1036E012B06D0202346
:10348800C0F880300023036683667047026852E8FC
:10349800003F23F0100342E800310029F6D1EEE79F
:1034A80010B5044683680269134342691343C2692D
:1034B8001343016808684E4A02401A430A602268AA
:1034C800536823F44053E1680B435360A269236AAD
:1034D8001A4321688B6823F4306313438B60236895
:1034E800444A934214D0444A934227D002F580625A
:1034F80093421FD01023E069B0F5004F20D0082B6D
:103508006DD8DFE803F04A5D486C606C6C6C630052
:103518003A4B1B6B03F00303032B09D8DFE803F0D6
:103528000204060C0023E6E70423E4E70823E2E7A5
:103538001023E0E70023DEE70223DCE70023DAE7D5
:10354800082B46D8DFE803F0051F254522454545E9
:103558000900FEF7B3FC00283DD06268530803EB6E
:103568004003B3FBF2F3A3F110014FF6EF7291425F
:1035780033D89AB222F00F02C3F3420313432268EE
:10358800D36000202CE0FEF7AFFCE4E7FEF792FBE7
:10359800E1E71B48E1E71A4802E0FEF78FFC18B3A1
:1035A800636800EB5300B0FBF3F0A0F110024FF694
:1035B800EF739A421AD8236880B2D86000200FE0CF
:1035C800FEF792FCEBE7FEF775FBE8E74FF40040E7
:1035D800E6E7012004E0002002E0012000E00120ED
:1035E8000023A366E36610BD0020F9E70120F7E792
:1035F800F369FFEF0038014000440040001002402A
:1036080000127A00436A13F0080F06D00268536864
:1036180023F40043416B0B435360436A13F0010FDB
:1036280006D00268536823F40033816A0B43536061
:10363800436A13F0020F06D00268536823F48033FC
:10364800C16A0B435360436A13F0040F06D0026843
:10365800536823F48023016B0B435360436A13F0D0
:10366800100F06D00268936823F48053816B0B43D4
:103678009360436A13F0200F06D00268936823F41E
:103688000053C16B0B439360436A13F0400F0AD099
:103698000268536823F48013016C0B435360036C76
:1036A800B3F5801F0BD0436A13F0800F06D0026871
:1036B800536823F40023816C0B43536070470268FE
:1036C800536823F4C003416C0B435360EBE72DE9C7
:1036D800F84305460E4617469946DDF820802B68C4
:1036E800DC6936EA04040CBF01240024BC4236D14C
:1036F800B8F1FF3FF3D0FDF7BFFFA0EB090040454D
:1037080030D8B8F1000F2FD02B681A6812F0040FC8
:10371800E5D0802EE3D0402EE1D0DA6912F0080F10
:1037280011D1DA6912F4006FD9D04FF400621A622D
:103738002846FFF78CFE2023C5F88430002385F83F
:10374800783003200CE008241C622846FFF77FFE2F
:10375800C5F88440002385F87830012000E0002077
:10376800BDE8F8830320FBE70320F9E72DE9F041E2
:1037780082B01E46C36F202B56D104460D46904694
:10378800002955D00AB901204FE00023C0F8843041
:103798002123C367FDF770FF0746A4F85080A4F8FB
:1037A8005280A368B3F5805F02D04FF0000815E09F
:1037B80023693BB34FF0000810E02023E3670320A0
:1037C80033E0226838F8023BC3F308031385B4F8E2
:1037D800522092B2013A92B2A4F85220B4F8523070
:1037E8009BB293B100963B46002280212046FFF70A
:1037F8006EFF0028E1D1002DE3D015F8012B2368D6
:103808001A85E4E7A8460025E8E700963B4600222B
:1038180040212046FFF75BFF10B92023E36704E04F
:103828002023E367032000E0022002B0BDE8F08116
:103838000120FAE730B583B004460023C0F884308D
:10384800FDF71AFF05462268126812F0080F0FD11B
:1038580023681B6813F0040F26D12023E367C4F8FC
:10386800803000202066606684F8780003B030BDA0
:103878006FF07E430093034600224FF40011204668
:10388800FFF725FF0028E3D0226852E8003F23F025
:10389800800342E800310029F6D12023E3670023A2
:1038A80084F878300320E1E76FF07E4300932B46DD
:1038B80000224FF480012046FFF709FF0028CCD0F2
:1038C800226852E8003F23F4907342E8003100294F
:1038D800F6D1226802F1080353E8003F23F0010300
:1038E800083242E800310029F3D12023C4F880309F
:1038F800002384F878300320B8E768B310B504468D
:10390800C36F03B32423E3672268136823F001031A
:103918001360636AE3B92046FFF7C2FD012811D09E
:103928002268536823F4904353602268936823F015
:103938002A0393602268136843F00103136020464A
:10394800FFF778FF10BD80F87830FDF73DFAD9E72A
:103958002046FFF757FEDEE701207047034AD2F8FA
:10396800883043F47003C2F88830704700ED00E0F7
:1039780010B503460C4A0D490D48006840B10C4883
:1039880000680344521A934206D8094A136010BDCE
:103998000748084C0460F2E700F064FA0C2303605F
:1039A8004FF0FF30F3E700BF0030002000040000B4
:1039B800DC0200203004002070B50C4616460025B5
:1039C80006E0AFF30080214601F8010B01350C46F3
:1039D800B542F6DB304670BD4FF0FF3070474FF40C
:1039E80000534B600020704700207047DFF834D048
:1039F800FFF7B4FF0C480D490D4A002302E0D458E4
:103A0800C4500433C4188C42F9D30A4A0A4C002320
:103A180001E013600432A242FBD300F029FAFCF75C
:103A2800AFFEFEE700300020000000206800002004
:103A380000430008680000202C040020FEE7000076
:103A4800002310B50446C0E90033C0E9043383609D
:103A580081814366C2818361194608225C3000F087
:103A6800B3F90D4B63620D4BA3620D4BE3620D4B33
:103A780023630D4B24629C4206D003F168029442F2
:103A880002D0D0339C4205D104F15800BDE8104063
:103A980000F012BA10BD00BF493D00086B3D000898
:103AA800A33D0008C93D0008E0020020024A03497E
:103AB800034800F06BB800BF0C000020CD4100089F
:103AC8001C00002041680C4B994210B5044601D0F7
:103AD80000F078FBA168094B994202D0204600F01B
:103AE80071FBE168064B994204D02046BDE81040BE
:103AF80000F068BB10BD00BFE002002048030020B2
:103B0800B00300200C4B0D4A0D4810B504211A6073
:103B18000022FFF795FF0A4B01221C46092103F1F9
:103B28006800FFF78DFF04F1D0000222BDE81040C5
:103B38001221FFF785BF00BF18040020B53A00081E
:103B4800E0020020014800F0B8B900BF21040020BD
:103B5800014800F0B3B900BF2104002010B50446A5
:103B6800FFF7F0FF236A1BB1BDE81040FFF7F0BF75
:103B7800044B2362044B1B68002BF5D1FFF7C2FFEF
:103B8800F2E700BFCD3A0008180400202DE9F843F9
:103B98000746884614460026D4E90195B9F101097B
:103BA80005D52468002CF7D13046BDE8F883AB89E9
:103BB800012B07D9B5F90E30013303D02946384611
:103BC800C04706436835E9E7B1FA81F252094FF474
:103BD8008063520000F000B82DE9F7431D46574BAB
:103BE8001F6804460E46904627B13B6A13B938460B
:103BF800FFF7B4FFB8F1020F06D0B8F1010F00F2D9
:103C08009A80002DC0F29780636ED90705D4A389E6
:103C18009A0502D4A06D00F050F92146384600F00C
:103C2800D1FA616B41B104F14403994202D038469C
:103C380000F046F9002363630023A3616360A3894E
:103C48001B0603D52169384600F03AF9A38923F405
:103C58004A6323F00303B8F1020FA38161D001ABDB
:103C68006A462146384600F0D5FAA3891843A08150
:103C78002DBB009D284600F06DF90646002852D15C
:103C8800DDF80090A94540D14FF0FF35B4F90C306C
:103C980043F00202A2810022A26004F147022260DE
:103CA800226101226261626ED60704D4980502D4AB
:103CB800A06D00F003F9284603B0BDE8F083002E9C
:103CC800D8D03B6A13B93846FFF748FFB8F1010F5F
:103CD80008BFA389266004BF43F00103A381B4F998
:103CE8000C3013F00802C4E904651ED0D90741BF9F
:103CF80000226D42A260A56158BFA560626ED2071E
:103D080001D49B0513D50025D5E7484600F022F9D4
:103D180006460028B8D0A38943F08003A3814D4606
:103D2800CFE70025B2E7A946F5E7A260E6E7A06D70
:103D380000F0C4F8E7E74FF0FF35BCE718000020B3
:103D480010B50C46B1F90E1000F068F80028ABBFAA
:103D5800636DA3891B1823F48053ACBF6365A381EB
:103D680010BD2DE9F0411F468B89DB0505460C4641
:103D7800164605D5B1F90E100223002200F03CF8D2
:103D8800A389B4F90E1023F48053A38132463B462D
:103D98002846BDE8F04100F053B810B50C46B1F91B
:103DA8000E1000F029F8B4F90C30421C0BBF23F4B4
:103DB800805343F48053A381A38118BF606510BD6D
:103DC800B1F90E1000F008B802440346934200D13E
:103DD800704703F8011BF9E738B5064D0023044680
:103DE80008462B60FFF7F8FD431C02D12B6803B18E
:103DF800236038BD1C04002038B5074D044608462A
:103E0800114600222A601A46FFF7EEFD431C02D134
:103E18002B6803B1236038BD1C04002038B5074D5A
:103E280004460846114600222A601A46FFF7C4FDD8
:103E3800431C02D12B6803B1236038BD1C04002049
:103E480038B5074D04460846114600222A601A462E
:103E5800FCF762FA431C02D12B6803B1236038BD1A
:103E68001C040020014B1868704700BF1800002090
:103E780070B50D4B0D4D5B1B9C100026A64209D159
:103E880000F00EFA0A4D0B4B5B1B9C100026A64255
:103E980005D170BD55F8043B98470136EEE755F853
:103EA800043B98470136F2E7F8420008F842000858
:103EB800F8420008FC42000870477047704700004D
:103EC80038B50546002941D051F8043C0C1F002B99
:103ED800B8BFE41800F0E8F81D4A136833B9636006
:103EE80014602846BDE8384000F0E4B8A34208D979
:103EF800206821188B4201BF19685B680918216086
:103F0800EDE71A465B680BB1A342FAD9116850185D
:103F1800A0420BD120680144501883421160E0D1BF
:103F280018685B68536008441060DAE702D90C230C
:103F38002B60D6E7206821188B4204BF19685B689C
:103F4800636004BF091821605460CAE738BD00BF28
:103F580028040020024B0146186800F025B800BF6D
:103F68001800002070B50F4E0C463168054611B98F
:103F780000F086F930602146284600F081F9431C9C
:103F880003D14FF0FF34204670BDC41C24F0030455
:103F9800A042F8D0211A284600F072F90130F2D177
:103FA800EFE700BF240400202DE9F843CD1C25F0DD
:103FB800030508350C2D38BF0C25002D064601DBFE
:103FC800A94204D90C2333600020BDE8F883DFF848
:103FD800D48000F069F8D8F800301C4644BB294664
:103FE8003046FFF7BFFF431C044658D1D8F80040BD
:103FF8002746002F43D1002C4BD023683946304642
:1040080004EB030900F03CF9814542D121686D1A9F
:1040180029463046FFF7A6FF01303AD023682B44E3
:104028002360D8F800305A6862BBC8F800700FE007
:104038002268521B20D40B2A17D96119A342256084
:1040480018BF5960636808BFC8F8001062514B6018
:10405800304600F02FF804F10B00231D20F0070074
:10406800C21A1CBF1B1AA350AFE76268A3420CBF59
:10407800C8F800205A60EBE723466468AEE73C4680
:104088007F68B6E71A465B68A342FBD100235360FA
:10409800DEE70C233360304600F00CF894E7056047
:1040A800D6E700BF280400200148FFF706BF00BF7D
:1040B800200400200148FFF701BF00BF20040020B2
:1040C800B1F90C202DE9F041160705460C4651D4EC
:1040D8004B68002B02DC0B6C002B49DDE66A002ED6
:1040E80046D0002312F480522F682B6031D0626DC5
:1040F800A389590705D56368D21A636B0BB1236C82
:10410800D21A0023E66A216A2846B047421CB4F94D
:104118000C3006D129681D2946D8294ACA40D60735
:1041280042D500226260D9042269226004D5421C6B
:1041380001D12B6803B96065616B2F60C1B104F1CF
:104148004403994202D02846FFF7BAFE002363636E
:104158000EE0216A01232846B0470246501CC7D109
:104168002B68002BC4D01D2B01D0162B1AD12F6021
:1041780000201EE00F69002FFAD093070E6808BFD1
:104188004B690F6018BF0023A6EB07088B60B8F1D6
:10419800000FEDDD216AA66A43463A462846B04735
:1041A800002808DCB4F90C3043F04003A3814FF039
:1041B800FF30BDE8F0810744A8EB0008E7E700BF3F
:1041C8000100402038B50B6905460C4613B9002597
:1041D800284638BD18B1036A0BB9FFF7BFFCB4F91C
:1041E8000C30002BF3D0626ED00704D4990502D4AA
:1041F800A06DFFF762FE28462146FFF761FF636E58
:10420800DA070546E4D4A3899B05E1D4A06DFFF73E
:1042180055FEDDE770B50C46B1F90E10002996B0D1
:1042280015461E460ADAA18911F0800113D14FF410
:104238008062002031602A6016B070BD6A4600F0C6
:104248000DF80028EFDB019901F47041A1F5005346
:1042580059425941EBE700214022EAE738B5074DBA
:1042680000230446084611462B60FFF7B8FB431CA1
:1042780002D12B6803B1236038BD00BF1C040020A5
:1042880038B5064D0023044608462B60FFF770FB3F
:10429800431C02D12B6803B1236038BD1C040020E5
:1042A800F8B500BFF8BC08BC9E467047F8B500BF1B
:0842B800F8BC08BC9E467047EB
:1042C0000102030405060708090A0B0C0D0E0F1066
:1042D00002030405060708090A0B0C0D0E0F101047
:1042E00000000000010203040000000000000000C4
:0842F00001020304060708099E
:0442F800AD0100080C
:0442FC00890100082C
:10430000010000001000000000127A000000000010
:1043100003000000E00200201C000020000000005C
:10432000E002002048030020B0030020000000004D
:10433000000000000000000000000000000000007D
:10434000000000000000000000000000000000006D
:10435000000000000000000000000000000000005D
:08436000000000000000000055
:04000005080039F5C1
:00000001FF
